:100BF100205847FF142E0000000A00000000FF0DDE
:100C0100A10000000A00000000FF0B4400000032B8
:100C110000000000FF0F260000000500000000FF9B
:100C210015540000006400000000FF134C00000098
:100C31004B00000000FF106F000000FA00000000F0
:0B0C4100FF1306000000500000000040
:101024007F101214C17F401214C1E4F5E9F5F9F5FB
:10103400D97B217D01FF1212927F431215111215E3
:101044001E900000740AF0E4A3F0A304F0A3741546
:10105400F0E490000AF090000CF0A3F012001E12CD
:0B106400147212150312149B0214AE4C
:0A153600121024D2AF120EB180FB98
:05001E00789F76082226
:0B0EB100E4F523E523C3789F96506909
:100EBC0078A012059C8F278E268D258C24E5237512
:100ECC00F00BA4244AF812059CE52375F00BA4241E
:100EDC004EF81205A8EB2FFFEA3EFEE93DFDE83C7B
:100EEC00FCAB27AA26A925A824C312058B4026AF44
:100EFC0027AE26AD25AC24E52375F00BA4244EF8C3
:100F0C001205B5E52375F00BA42447F808E6FA089A
:050F1C00E6F9120603D6
:040F21000523808F95
:010F250022A9
:100C4C0004A000000000014500014400013F000227
:070C5C00400000024200000D
:10149B00538E7F5389F0438905E4F58AF58CC28D11
:0314AB00D28C22BE
:1014AE00438E4053890F758B40758DA2C28FD28E9D
:0314BE00D2AB228C
:03001B00020F7D54
:100F7D00C0E0C0F0C083C082C0D075D000C000C03A
:100F8D0001C002C003C004C005C006C00778A0128E
:100F9D00059CEF2401FFE43EFEE43DFDE43CFC78BE
:100FAD00A01205B51211E2120E2AD007D006D005F7
:100FBD00D004D003D002D001D000D0D0D082D083C5
:050FCD00D0F0D0E0327D
:100E2A00053FC3E53F940A748094804006E4F53F89
:100E3A0012154A0541E54170020540C39490E54008
:100E4A009401401DE4F540F541E54470047F0180BA
:100E5A00027F008F44E54570047F0180027F008F86
:100E6A00450543E54370020542C394F4E542940103
:100E7A004019E4F542F543AF8CEFFFAD8AED9000DF
:100E8A000CCFF0A3EFF0E4F58AF58C900011E06046
:100E9A0015900010E004F0C3941474809480400606
:060EAA009000127402F03A
:010EB000221F
:030C6300014670D7
:0A15400053A01FEF42A053A01F228A
:1014D300E5465F700BEF42468546807FA0121540BC
:0114E30022E6
:1014C100E5465F600CEFF452468546807FA0121519
:0214D1004022B7
:100FD2004625303262752D253032627562620020FC
:100FE20020202D253032627562620064202020208C
:100FF2002533627500452020253564006225332E95
:10100200316620253362750041202020202533627D
:101012007500C0F9A4B0999282F880908883C6A125
:02102200868EB8
:0D0C66000809000000000000000001080067
:1011E200E4F5807FC012154074092508F8E6F58001
:1011F2007FE0121540AF08A8077401088002C333CC
:10120200D8FCF5807FC01215400508E50864087017
:0312120002F508DA
:0112150022B6
:100A7800E4F525F523C3E5239408748094804003A6
:100A8800020B4374112524F8E61205DD0B1F2D0A0D
:100A9800CB300AD0310AD5320ADA330ADF340AE415
:100AA800350AE9360AEE370AF3380AF8390AFD41F9
:100AB8000B07430B11450B16460B02620B0C640027
:100AC800000B249010148049901015804490101643
:100AD800803F901017803A90101880359010198038
:100AE8003090101A802B90101B802690101C8021AB
:100AF80090101D801C90101E801790101F8012905F
:100B08001020800D901021800890102280039010F2
:100B180023E493F52580087525BF80037525FF74A8
:100B2800122524F8E6B42E0553257F0524740925DB
:0B0B380023F8A62505230524020A7DF2
:010B4300228F
:100B4400900000E024EC603C24F6606224F670031C
:100B5400020BD6241E6003020BEEE54460157526D5
:100B6400FF75270F7528D2900002E0F529A3E0F560
:100B74002A806E7526FF75270F7528E1900003E023
:100B8400F529805DE54460117526FF75270F7528EA
:100B9400ED90000AE0F52980137526FF75270F757F
:100BA40028F790000CE0F529A3E0F52A8033752698
:100BB400FF75270F7528FE900004E0FCA3E0FDA359
:100BC400E0FEA3E0F52C8E2B8D2A8C29A3E0F52DD5
:100BD400800F7526FF75271075280A900009E0F527
:0D0BE400297B007A007911120665020A785B
:0413FC00D2A07F0AF2
:10140000000000000000000000000000000000AE2E
:06141000071FEE70EB2245
:0F14F400D2A11213FCC2A17F0A121400C2A022BF
:1013C4001211AD1213B21212E0AD077F0112000325
:0C13D400C2A11213FCD2A17F0A02140077
:0211AD00AD078C
:1011AF00E4FCECC39408748094805024C2A07F0A9E
:1011BF00121400ED30E704D2A18002C2A17F0A12FF
:1011CF001400D2A0ED25E0FD7F0A1214000C80D28E
:0211DF00C2A0AC
:0111E10022EB
:1012E000E4FCECC394087480948050171213FCED56
:1012F00025E0FD30A103430501C2A07F0A121400BE
:051300000C80DFAF05C9
:0113050022C5
:0B13A7001211AD1213B2AF031211AD12
:1013B2001213FCA2A1E433FDC2A07F0A121400AFF3
:0113C2000525
:0113C3002207
:10000300C2A0EF24FF92A17F0A1214001213FCC2B4
:08001300A0D2A17F0A02140033
:0D151100AB071214F47F901213A70213D43D
:0A152B001214F47F911213C4AF05EF
:011535002293
:10145D00AB071214F47F901211AD1213B27F431229
:05146D0013A70213D4D7
:10144600AB05AA071214F47FA01211AD1213B2AFA6
:07145600021213A70213D4D8
:02141600AB0722
:101418001214F47FA01213A71213D41214F47FA18C
:051428001213C4AF0522
:01142D00229C
:1013060012152B900009EFF0D39496748094807F89
:101316001040051214D380031214C1900009E0FF97
:0313260002145D51
:04136B007F057E007C
:10136F00EF1FAA0670011E4A600FE4FDEDC3940C37
:09137F007480948050EA0D80F3A3
:011388002242
:02124400A907F8
:10124600E4FBEBC39408748094805012C294E913B3
:10125600929412136BD294E9C313F90B80E47F05C1
:051266007E0002136F81
:10132900E4FBEBC39408748094805014C294ECC31A
:1013390013FCD29430940343048012136B0B80E2A4
:02134900AF04EF
:01134B00227F
:10126B00C208D2947F0C7E0012136FC2947F507E03
:10127B000012136FD2947F0A7E0012136FA2949206
:06128B000812136BA2081B
:01129100223A
:0D151E0012126B7FCC1212447F4402124463
:1011350012126B7FCC1212447FBE12124412132975
:101145008F23121329AC0712151EECAD23FCE412F4
:1011550001318F278E268D258C24E4FFFE7D807C32
:0C1165003DAB27AA26A925A824020026DD
:091554001211359000040205C1DA
:1013E000E4FEEEC3940874809480500FC297EF130C
:0B13F00092A3EFC313FFD2970E80E71B
:0113FB0022CF
:10148700C29300C29700D293001213E0AF05121364
:04149700E0C29322FA
:1010F800E4FDC29300C29700D293001213E0E4FF0C
:10110800EFC39408748094805011C297EDC313FD07
:1011180030A303430580D2970F80E5C29300C2979E
:0C11280000D29700C2A300D2A300AF05C4
:011134002298
:10129200AC07AA05E4FD7F8E121487AD047F841289
:1012A2001487AD027F82121487AD037F80121487E8
:0712B2007D807F8E0214878E
:10106F00C2AF7F851210F8AB077F831210F8AC0761
:10107F007F811210F8AD07D2AFEBC4540F75F00A91
:10108F00A4FFEB540F2F900001F0ECC4540F75F038
:10109F000AA4FFEC540F2FA3F0EDC4540F75F00A00
:0810AF00A4FFED540F2FA3F084
:0110B7002216
:0C0C7300011F00011C00011D00011E00FB
:10138900E4FF20B0032407FF20B10474062FFF20D7
:0D139900B20474052FFF20B30474042FFF6D
:0113A6002224
:10121600E4FFD2B3C2B2D2C4D2C220C4032405FFB3
:1012260020C20474092FFFC2B3D2B2D2C4D2C220E4
:0D123600C40474042FFF20C20474082FFFAD
:011243002288
:100C8300121216E51C14601814603E1460441460BC
:100C93006024E66056241E7078EF6075751C01228F
:100CA300EF606BF51DFD7C0064117006751C03F588
:100CB3001E22ED64084C6006ED64054C7007751C3C
:100CC30004E4F51E22751C0222EF7045851D1FF5F5
:100CD3001C22EF6014051EE51EC3943274809480B9
:100CE300402F751F11751C1E228023EF7023F51CE6
:100CF30022EF6017051EC3E51E9432748094804072
:100D03001074FB251EF51E851D1F22851D1FE4F58E
:010D13001CC3
:010D140022BC
:100DA100120C83E51F24FB604024FD605724F7608B
:100DB1006F240D7070900000E024EC601424F66044
:100DC1001824F6601C241E705C9000007414F080DE
:100DD10054900000741EF0804C9000007428F08044
:100DE10044900000740AF0803C900000E024EC7014
:100DF1003490000AE004F0C3946474809480402528
:100E0100E4F08021900000E024EC701990000AE0E9
:100E110014F0C3946474809480400A7464F0800573
:090E2100E490000AF0E4F51F2240
:10117100752310C290C2AFAF231523EF60097F0E14
:1011810012155DB29080F0D2AFE4F5E9F5F9D2DE47
:1011910030910CAFF9C3EF94207480948040F1C278
:0B11A100DEAFF9EFFEADE9ED449CFF6E
:0111AC002220
:07155D00AE071FEE70FA2239
:10134C00121171AC06AD07E41201317B967A437928
:0F135C008B783C12002612016A900008EFF022F5
:1014E40068656C6C6F0D0A006572726F720D0A008C
:030023000210B810
:1010B800C0E0C083C082C0D075D000C0073099029C
:1010C800C299309820C29890000FE0FF04F0741382
:1010D8002FF582E43400F583E599F090000E740151
:1010E800F0900011F0D007D0D0D082D083D0E03279
:10147200759850438E01438E0475D78F75D6FD4300
:051482008E10D2AC2227
:0E150300E490000EF0A3F0A3F0A3F0A3F022FA
:100F260090000EE06027E4F0A3E024FD701F90001F
:100F360013E0B44112A3E0B40D0DA3E0B40A089087
:100F460000127401F080069000127402F0900012F4
:100F5600E06023C2ACD29924FE600B0470117BFFC3
:100F66007A1479E480067BFF7A1479EC12066BD248
:070F7600ACC2991215032221
:030C7F0001200051
:0A154A00E520F4F5807F80021540D3
:10142E00E4F520900000E024F6700CD202D200E524
:08143E004524FF9203920122F4
:10002600EC4D6011E8497017ED33EC3304600DE4D4
:10003600FCFFFEFD22E933E8330470F80201D61214
:1000460001A158046009E4CC248150062850090215
:1000560001E02840030201DDC0E0EB4A7044B980AC
:1000660006D0E0FB0201CCEF4E701CBD8008EBFF12
:10007600EAFEE9FD80EBE98DF0A4FEE5F002010F52
:10008600E9CDF9EAFEEBFFEF89F0A4FCE5F0CE89B5
:10009600F0A42EFFE435F0CD89F0A42DFEE435F072
:1000A6008067EF4E7005BD80D780C3EF8BF0A4ACA0
:1000B600F0EE8BF0A42CFCE435F0F8EF8AF0A42CDB
:1000C600E5F038FCE433CB8DF0A42CFCE5F03BF8EE
:1000D600EE8AF0A42CFCE5F038F8E433CF89F0A4DE
:1000E6002CFCE5F038CF3400CE89F0A42FFFE5F0E4
:1000F6003EFEE433C98DF0A42EFEE5F039CD8AF03C
:10010600A42FFFE5F03EFEE43DFD33D0E0FB5007B3
:100116000BBB000F0201E0EC2CFCEF33FFEE33FECD
:06012600ED33FD0201B8FB
:10012C0075F020800E75F010800575F0087D007E4E
:10013C00007F003392D530D50312057DEC3340108F
:10014C00EF33FFEE33FEED33FDEC33FCD5F0ED2257
:0E015C00E5F0247EA2D513CC92E7CDCEFF2293
:10016A00EDD2E7CD33EC3392D524814006E4FFFE8D
:10017A00FDFC22FCE4CFCECDCC24E0501174FF80EC
:10018A00EDC3CC13CCCD13CDCE13CECF13CF047089
:07019A00F030D5DE02057D07
:10060900E53A2426F8E6053A227823300F027826BF
:10061900E475F0011205CD0205252008EB7F2ED2E5
:10062900088018EF540F2490D43440D4FF300C0BB9
:10063900EF24BFB41A0050032461FFE53B600215A3
:100649003B053EE53E7002053D300F0D7823E4750C
:10065900F0011205CDEF02056B0212B97403D20F36
:100669008003E4C20FF53A8B238A248925E4F53BFC
:10067900F53DF53EE53B60077F2012064480F575A0
:100689003CFFC209C208C20AC20BC20DC20EC21087
:10069900120612FF700D300F057F00120655AF3E8E
:1006A900AE3D22B4255FC2D5C20C120612FF24D07A
:1006B900B40A00501A75F00A783B30D50508B6FF20
:1006C9000106C6A426F620D5047002D20B80D924CF
:1006D900CFB41A00EF5004C2E5D20C020942D20984
:1006E90080C6D20880C0D20A80BCD2D580BAD20DC9
:1006F90080B47F20120644200A077401B53B0040EC
:10070900F1120609FF12064402067DD210D20E80AC
:1007190095120609FB120609FA120609F94A4B70E5
:100729000679397A0A7BFF200A2EE53B602A7E008A
:100739008E8275830012053E60060EEE653C70F0F0
:10074900C2D5EBC0E0EAC0E0E9C0E0EE1209A2D0F0
:10075900E0F9D0E0FAD0E0FB120525FF60AAEBC072
:10076900E0EAC0E0E9C0E0120644D0E02401F9D093
:10077900E03400FAD0E0FBE53C0460DCD53CD980EC
:1007890087D20A80A212098560F7E53C700104123C
:1007990001EBA93C600DE53C600914F53C120A2CFB
:1007A900EF60F3EA30E702F404C3995077EAF425DD
:1007B9003C0430E701E404F53C800D12098560C171
:1007C900EA053C253C1201EBEA7839F630E701E409
:1007D900253C04D53C04200D01141209A2E4C0E013
:1007E900120A2C7839E6601320E70714F612062C52
:1007F900802204F6D0E014C0E07F0012062CE53C0C
:100809006007120623153C800B300D03120623D016
:10081900E002067DD0E00480C512098560A0E53CB0
:10082900041201EB7839EAF6E53C200D0260010477
:0508390024041209A2D5
:10083E0074FF04C0E0120A2C12062CE53C200D02B7
:10084E006003120623D0E0B53CE87F4512063678E9
:10085E0039E67F2B30E7047F2DF404C0E012064406
:10086E00D0E075F00A84C0F012062DD0E012062DED
:10087E0002067D791080027908C20EC2108008D25D
:10088E00D5790A8004790AC2D5E53C047002F53C9C
:10089E00E4FAFDFEFF120609FC7B0820091312067E
:1008AE0009FD7B1030080A120609FE120609FF7BAD
:1008BE0020EC3382D592D55013C3E43008069FFF47
:1008CE00E49EFEE42009039DFDE49CFCE4CBF8C20B
:1008DE0009EC700CCFCECDCCE824F8F870F380176D
:1008EE00C3EF33FFEE33FEED33FDEC33FCEB33FBA6
:1008FE00994002FB0FD8E9EB300905F8D0E0C44867
:10090E00B209C0E00AEC4D4E4F78207B0070C2EA6F
:10091E00B53C0040BCC0E01209A4D0F0D0E02009E4
:10092E0004C4C0E0C4B209C0F012062DD0F0D5F058
:10093E00EB02067D1205DD071A5308815806EB4CB3
:10094E0006E74208854F088D44088D490700430885
:10095E00935507C446082245078E470A595006EF9D
:10096E002D06F32E07162B06F7230714200A422A0C
:10097E0006AF480000070EE53CB4FF03753C0612B7
:10098E000609FC120609FD120609FE120609FF7879
:10099E003202021A790AA2D5200B14300D09B910B1
:1009AE00020404B9080104A2D5200E02500104204D
:1009BE000A68920AB53B005034C0E07F20300B1914
:1009CE007F30A20A720E720D500F1209FBC20AC2BC
:1009DE000EC20DC2107F30800F300D03E9C0E01241
:1009EE000644300D03D0E0F9D0E0B53BCC300D1706
:1009FE007F30B9100C1206447F58300C077F788078
:100A0E0003B90803120644300A057F2D0206447FFF
:100A1E00202010F87F2B200EF322920A80CF7F0029
:100A2E00B4070050052432F8E6FF22286E756C6C70
:100A3E002900D2091206093009F8C209783B30D5CF
:100A4E000108F60206AF2D50434958120609240339
:100A5E00B405004001E4900A5493120635743A121C
:0A0A6E000635D20B753B0402088127
:1001A100E9D2E7C933E833F892D5EDD2E7CD33ECA4
:0701B10033FC5002B2D5221D
:1001B800EC30E7100FBF000C0EBE00080DBD0004A8
:1001C8000BEB6014A2D5EB13FCED92E7FD2274FF54
:1001D800FCFDFEFF22E480F8A2D574FF13FC7D80AD
:0301E800E480EFC1
:1001EB00F920E72824F950037907E4F42402FB18DB
:1001FB00DBFDE624FB5014E9600DE4F618E604F68B
:0F020B00B40A08E4F6D9F57401F60A22C2D52226
:10021A00ED33EC3392D5FA602AB4FF33EDC2E77BB3
:10022A00FF60067A02793FE4227A02794820D504EF
:10023A007A027943224E614E002B494E46002D49DF
:10024A004E4600E47A08F608DAFC7B00740722E8D6
:10025A00C0E0ECC0E0EDC0E0EEC0E0EFC0E0EA755F
:10026A00F010A4CAABF075F04DA42BFBE435F0FCFA
:10027A00EA2410FAEB34C5FBEC34D9FCEDC2E7FFF3
:10028A0075F056A4F42411C5F0F434C58FF0A42AED
:10029A00E5F03BE43CF620E7141204E5D0E0FFD099
:1002AA00E0FED0E0FDD0E0FC1204188014F4041241
:1002BA0004E5D0E0FFD0E0FED0E0FDD0E0FC120083
:1002CA0026D0E0F8E6FAEDD2E7CD33EC332482FB10
:1002DA00E4C3CF33CFCE33CECD33CD33DBF37B077D
:1002EA0075F00A846004F6081B0AE5F0F6088FF038
:1002FA00740AA4FFACF08EF0740AA42CFEACF05081
:10030A00010C8DF0740AA42CFDE435F0F608DBDE4E
:03031A0074072243
:10031D000201D6E86480F8E933E83360110460F037
:10032D00ED33EC337009E8FCE9FDEAFEEBFF220446
:10033D0060DED3EB9FEA9EE99DE8C2E78CF0C2F741
:10034D0095F0400CE8CCF8E9CDF9EACEFAEBCFFB0D
:10035D001201A185D0F05804700320D5B3E80470C4
:10036D00075002B2D50201E092D5EC0460F7E4CC5F
:10037D00C0E0C398F8603B94186008400DD0E0FBD6
:10038D000201B8E4FBFAC9FC8028E830E406E4C9B0
:10039D00FBE4CAFCE830E305E4C9CACBFCE854072A
:1003AD006010F8C3E913F9EA13FAEB13FBEC13FC35
:1003BD00D8F130F52FC3E49CFCEF9BFFEE9AFEEDD8
:1003CD0099FDD0E0FBEF4E4D4C701222DB03020184
:1003DD00DDEC2CFCEF33FFEE33FEED33FDED30E7BE
:1003ED00EB0201B8EF2BFFEE3AFEED39FDD0E0FB4D
:1003FD0050130BBB00030201E0ED13FDEE13FEEFF6
:08040D0013FFEC13FC0201B81F
:100415000201E0EC5D046005E8590470030201D6B1
:100425001201A1580460F6EC4860F2EC7004FDFE80
:10043500FF22C860DB2481C85009C39860025006BA
:100445000201DD9850CAF582E9294B4A7005AB8255
:100455000201CC75F0007C1A7880C3EF9BEE9AED13
:1004650099400DC3EF9BFFEE9AFEED99FDE842F032
:10047500DC23ACF0D0E0FFD0E0FED0E0FDAB822085
:10048500E7101BEB60BAEC2CFCEF33FFEE33FEED0F
:1004950033FD0201B8E803F830E705C0F075F00058
:1004A500EF2FFFEE33FEED33FD40B830E7C280AAF3
:1004B5003F8000004120000042C80000447A00004F
:1004C500461C400047C35000497424004B189680D1
:1004D5004CBEBC205A0E1BCA6753C21C749DC5AEC8
:1004E500FB60065407601C2323120513EB54386088
:1004F500091204FF12050E120026ECF8EDF9EEFACA
:10050500EFCB22EB12050E80F1543803241C900426
:10051500B5FE93FC0EEE93FD0EEE930ECE93FF22E9
:03000000020D15D9
:0C0D1500787FE4F6D8FD7581A3020D5C28
:10052500BB010689828A83E0225002E722BBFE02D4
:09053500E32289828A83E4932207
:10053E00BB010CE58229F582E5833AF583E0225072
:10054E0006E92582F8E622BBFE06E92582F8E222BC
:0D055E00E58229F582E5833AF583E49322D6
:10056B00BB010689828A83F0225002F722BBFE016F
:02057B00F32269
:0E057D00C3E49FFFE49EFEE49DFDE49CFC228F
:10058B00EB9FF5F0EA9E42F0E99D42F0E89C45F0C6
:01059B00223D
:0C059C00E6FC08E6FD08E6FE08E6FF228B
:0D05A800E6FB08E6F908E6FA08E6CBF822C3
:0C05B500ECF608EDF608EEF608EFF62272
:0C05C100ECF0A3EDF0A3EEF0A3EFF022AD
:1005CD00FAE6FB0808E6F925F0F618E6CA3AF6222F
:1005DD00D083D082F8E4937012740193700DA3A3AD
:1005ED0093F8740193F5828883E4737402936860C1
:0605FD00EFA3A3A380DFC1
:060603008A838982E47382
:1012B900EFB40A07740D1212C4740A309811A89970
:1012C900B8130CC2983098FDA899C298B811F63095
:0712D90099FDC299F599226D
:100D2100021536E493A3F8E493A34003F68001F29D
:100D310008DFF48029E493A3F85407240CC8C333D3
:100D4100C4540F4420C8834004F456800146F6DFA2
:100D5100E4800B0102040810204080900BF1E47E36
:100D6100019360BCA3FF543F30E509541FFEE49397
:100D7100A360010ECF54C025E060A840B8E493A35E
:100D8100FAE493A3F8E493A3C8C582C8CAC583CA89
:100D9100F0A3C8C582C8CAC583CADFE9DEE780BE41
:010C82000071
:00000001FF
